:1000000000D00E01590ED36F020ED96F500ED76F6C
:100010000F0189911C9189931C9389951C9589974F
:100020001C9789991C99899B1C9B899D1C9D8B9170
:10003000299187810C910B818881149113818A9178
:1000400021918A9321938A9521958A972197856B8F
:10005000000EF86F010EF76F8DA15DEC00F03EEC25
:1000600000F08CB186818691F7D700000000000077
:10007000000000000000000000001200500EF66FAB
:100080000900F5CF84FF858135EC00F085910900EA
:10009000F5CF84FF858335EC00F085930900F5CF1B
:1000A00084FF858535EC00F085950900F5CF84FF48
:1000B000858735EC00F085971200540EF66F090025
:1000C000F5CF84FF858135EC00F085910900F5CFEF
:1000D00084FF858335EC00F085930900F5CF84FF1C
:1000E000858535EC00F085950900F5CF84FF85877F
:0600F00035EC00F08597DD
:08015000737B501C767B5F7885
:020000040030CA
:0C000000FFFF3DFF9FFFFFFFFFFFFFFF22
:00000001FF
