:020000007FD0AF
:100100000001600EAD6F020EB16F400EB36F0401BF
:10011000C6930093C6950095C6970097C699009917
:10012000C69B009BC69D009DC69F009FC9811891DC
:100130001981D6EC00F0D1B1FED7D1B1FED7DEECFB
:1001400000F0D1B1FED7D1B1FED7E6EC00F0D1B1CD
:10015000FED7D1B1FED7EEEC00F0D1B1FED7D1B1D0
:10016000FED7F6EC00F0D1B1FED7D1B1FED7FEEC50
:1001700000F0D1B1FED7D1B1FED706EC01F0D1B17C
:10018000FED7D1B1FED70EEC01F0D1B1FED7D1B17F
:10019000FED716EC01F0D1B1FED7D1B1FED71EECDF
:1001A00001F0D1B1FED7D1B1FED7C3D7BE83BE8592
:1001B000BE87BE89BE8BBE8DBE9F1200BE93BE950C
:1001C000BE87BE89BE9BBE9DBE9F1200BE83BE85FC
:1001D000BE97BE89BE8BBE9DBE8F1200BE93BE85EC
:1001E000BE87BE89BE8BBE9DBE8F1200BE93BE95DC
:1001F000BE87BE89BE9BBE8DBE8F1200BE93BE85DC
:10020000BE87BE99BE8BBE8DBE8F1200BE83BE85DB
:10021000BE87BE99BE8BBE8DBE8F1200BE93BE95AB
:10022000BE87BE89BE8BBE9DBE8F1200BE83BE85BB
:10023000BE87BE89BE8BBE8DBE8F1200BE93BE85AB
:0C024000BE87BE89BE8BBE8DBE8F120033
:020000040030CA
:08000000FCFF3DDF9FFFFFFF45
:01000900FFF7
:00000001FF
